{
  "contractName": "Test",
  "abi": [
    {
      "inputs": [],
      "stateMutability": "nonpayable",
      "type": "constructor"
    },
    {
      "anonymous": false,
      "inputs": [
        {
          "indexed": true,
          "internalType": "address",
          "name": "owner",
          "type": "address"
        },
        {
          "indexed": true,
          "internalType": "address",
          "name": "approved",
          "type": "address"
        },
        {
          "indexed": true,
          "internalType": "uint256",
          "name": "tokenId",
          "type": "uint256"
        }
      ],
      "name": "Approval",
      "type": "event"
    },
    {
      "anonymous": false,
      "inputs": [
        {
          "indexed": true,
          "internalType": "address",
          "name": "owner",
          "type": "address"
        },
        {
          "indexed": true,
          "internalType": "address",
          "name": "operator",
          "type": "address"
        },
        {
          "indexed": false,
          "internalType": "bool",
          "name": "approved",
          "type": "bool"
        }
      ],
      "name": "ApprovalForAll",
      "type": "event"
    },
    {
      "inputs": [
        {
          "internalType": "address",
          "name": "to",
          "type": "address"
        },
        {
          "internalType": "uint256",
          "name": "tokenId",
          "type": "uint256"
        }
      ],
      "name": "approve",
      "outputs": [],
      "stateMutability": "nonpayable",
      "type": "function"
    },
    {
      "inputs": [
        {
          "internalType": "address",
          "name": "to",
          "type": "address"
        }
      ],
      "name": "mint",
      "outputs": [],
      "stateMutability": "nonpayable",
      "type": "function"
    },
    {
      "anonymous": false,
      "inputs": [
        {
          "indexed": true,
          "internalType": "address",
          "name": "previousOwner",
          "type": "address"
        },
        {
          "indexed": true,
          "internalType": "address",
          "name": "newOwner",
          "type": "address"
        }
      ],
      "name": "OwnershipTransferred",
      "type": "event"
    },
    {
      "inputs": [],
      "name": "renounceOwnership",
      "outputs": [],
      "stateMutability": "nonpayable",
      "type": "function"
    },
    {
      "inputs": [
        {
          "internalType": "address",
          "name": "from",
          "type": "address"
        },
        {
          "internalType": "address",
          "name": "to",
          "type": "address"
        },
        {
          "internalType": "uint256",
          "name": "tokenId",
          "type": "uint256"
        }
      ],
      "name": "safeTransferFrom",
      "outputs": [],
      "stateMutability": "nonpayable",
      "type": "function"
    },
    {
      "inputs": [
        {
          "internalType": "address",
          "name": "from",
          "type": "address"
        },
        {
          "internalType": "address",
          "name": "to",
          "type": "address"
        },
        {
          "internalType": "uint256",
          "name": "tokenId",
          "type": "uint256"
        },
        {
          "internalType": "bytes",
          "name": "_data",
          "type": "bytes"
        }
      ],
      "name": "safeTransferFrom",
      "outputs": [],
      "stateMutability": "nonpayable",
      "type": "function"
    },
    {
      "inputs": [
        {
          "internalType": "address",
          "name": "operator",
          "type": "address"
        },
        {
          "internalType": "bool",
          "name": "approved",
          "type": "bool"
        }
      ],
      "name": "setApprovalForAll",
      "outputs": [],
      "stateMutability": "nonpayable",
      "type": "function"
    },
    {
      "anonymous": false,
      "inputs": [
        {
          "indexed": true,
          "internalType": "address",
          "name": "from",
          "type": "address"
        },
        {
          "indexed": true,
          "internalType": "address",
          "name": "to",
          "type": "address"
        },
        {
          "indexed": true,
          "internalType": "uint256",
          "name": "tokenId",
          "type": "uint256"
        }
      ],
      "name": "Transfer",
      "type": "event"
    },
    {
      "inputs": [
        {
          "internalType": "address",
          "name": "from",
          "type": "address"
        },
        {
          "internalType": "address",
          "name": "to",
          "type": "address"
        },
        {
          "internalType": "uint256",
          "name": "tokenId",
          "type": "uint256"
        }
      ],
      "name": "transferFrom",
      "outputs": [],
      "stateMutability": "nonpayable",
      "type": "function"
    },
    {
      "inputs": [
        {
          "internalType": "address",
          "name": "newOwner",
          "type": "address"
        }
      ],
      "name": "transferOwnership",
      "outputs": [],
      "stateMutability": "nonpayable",
      "type": "function"
    },
    {
      "inputs": [
        {
          "internalType": "address",
          "name": "owner",
          "type": "address"
        }
      ],
      "name": "balanceOf",
      "outputs": [
        {
          "internalType": "uint256",
          "name": "",
          "type": "uint256"
        }
      ],
      "stateMutability": "view",
      "type": "function"
    },
    {
      "inputs": [
        {
          "internalType": "uint256",
          "name": "tokenId",
          "type": "uint256"
        }
      ],
      "name": "getApproved",
      "outputs": [
        {
          "internalType": "address",
          "name": "",
          "type": "address"
        }
      ],
      "stateMutability": "view",
      "type": "function"
    },
    {
      "inputs": [
        {
          "internalType": "address",
          "name": "owner",
          "type": "address"
        },
        {
          "internalType": "address",
          "name": "operator",
          "type": "address"
        }
      ],
      "name": "isApprovedForAll",
      "outputs": [
        {
          "internalType": "bool",
          "name": "",
          "type": "bool"
        }
      ],
      "stateMutability": "view",
      "type": "function"
    },
    {
      "inputs": [],
      "name": "name",
      "outputs": [
        {
          "internalType": "string",
          "name": "",
          "type": "string"
        }
      ],
      "stateMutability": "view",
      "type": "function"
    },
    {
      "inputs": [],
      "name": "owner",
      "outputs": [
        {
          "internalType": "address",
          "name": "",
          "type": "address"
        }
      ],
      "stateMutability": "view",
      "type": "function"
    },
    {
      "inputs": [
        {
          "internalType": "uint256",
          "name": "tokenId",
          "type": "uint256"
        }
      ],
      "name": "ownerOf",
      "outputs": [
        {
          "internalType": "address",
          "name": "",
          "type": "address"
        }
      ],
      "stateMutability": "view",
      "type": "function"
    },
    {
      "inputs": [
        {
          "internalType": "bytes4",
          "name": "interfaceId",
          "type": "bytes4"
        }
      ],
      "name": "supportsInterface",
      "outputs": [
        {
          "internalType": "bool",
          "name": "",
          "type": "bool"
        }
      ],
      "stateMutability": "view",
      "type": "function"
    },
    {
      "inputs": [],
      "name": "symbol",
      "outputs": [
        {
          "internalType": "string",
          "name": "",
          "type": "string"
        }
      ],
      "stateMutability": "view",
      "type": "function"
    },
    {
      "inputs": [
        {
          "internalType": "uint256",
          "name": "tokenId",
          "type": "uint256"
        }
      ],
      "name": "tokenURI",
      "outputs": [
        {
          "internalType": "string",
          "name": "",
          "type": "string"
        }
      ],
      "stateMutability": "view",
      "type": "function"
    }
  ],
  "bytecode": "0x60806040523480156200001157600080fd5b506040516200311038038062003110833981810160405281019062000037919062000285565b818181600090805190602001906200005192919062000163565b5080600190805190602001906200006a92919062000163565b5050506200008d620000816200009560201b60201c565b6200009d60201b60201c565b505062000429565b600033905090565b6000600660009054906101000a900473ffffffffffffffffffffffffffffffffffffffff16905081600660006101000a81548173ffffffffffffffffffffffffffffffffffffffff021916908373ffffffffffffffffffffffffffffffffffffffff1602179055508173ffffffffffffffffffffffffffffffffffffffff168173ffffffffffffffffffffffffffffffffffffffff167f8be0079c531659141344cd1fd0a4f28419497f9722a3daafe3b4186f6b6457e060405160405180910390a35050565b828054620001719062000395565b90600052602060002090601f016020900481019282620001955760008555620001e1565b82601f10620001b057805160ff1916838001178555620001e1565b82800160010185558215620001e1579182015b82811115620001e0578251825591602001919060010190620001c3565b5b509050620001f09190620001f4565b5090565b5b808211156200020f576000816000905550600101620001f5565b5090565b60006200022a62000224846200032c565b620002f8565b9050828152602081018484840111156200024357600080fd5b620002508482856200035f565b509392505050565b600082601f8301126200026a57600080fd5b81516200027c84826020860162000213565b91505092915050565b600080604083850312156200029957600080fd5b600083015167ffffffffffffffff811115620002b457600080fd5b620002c28582860162000258565b925050602083015167ffffffffffffffff811115620002e057600080fd5b620002ee8582860162000258565b9150509250929050565b6000604051905081810181811067ffffffffffffffff82111715620003225762000321620003fa565b5b8060405250919050565b600067ffffffffffffffff8211156200034a5762000349620003fa565b5b601f19601f8301169050602081019050919050565b60005b838110156200037f57808201518184015260208101905062000362565b838111156200038f576000848401525b50505050565b60006002820490506001821680620003ae57607f821691505b60208210811415620003c557620003c4620003cb565b5b50919050565b7f4e487b7100000000000000000000000000000000000000000000000000000000600052602260045260246000fd5b7f4e487b7100000000000000000000000000000000000000000000000000000000600052604160045260246000fd5b612cd780620004396000396000f3fe608060405234801561001057600080fd5b50600436106101165760003560e01c8063715018a6116100a2578063b88d4fde11610071578063b88d4fde146102cb578063c87b56dd146102e7578063d85d3d2714610317578063e985e9c514610333578063f2fde38b1461036357610116565b8063715018a6146102695780638da5cb5b1461027357806395d89b4114610291578063a22cb465146102af57610116565b806323b872dd116100e957806323b872dd146101b557806342842e0e146101d157806355f804b3146101ed5780636352211e1461020957806370a082311461023957610116565b806301ffc9a71461011b57806306fdde031461014b578063081812fc14610169578063095ea7b314610199575b600080fd5b61013560048036038101906101309190611dca565b61037f565b604051610142919061260f565b60405180910390f35b610153610461565b604051610160919061262a565b60405180910390f35b610183600480360381019061017e9190611e5d565b6104f3565b60405161019091906125a8565b60405180910390f35b6101b360048036038101906101ae9190611d8e565b610578565b005b6101cf60048036038101906101ca9190611c88565b610690565b005b6101eb60048036038101906101e69190611c88565b6106f0565b005b61020760048036038101906102029190611e1c565b610710565b005b610223600480360381019061021e9190611e5d565b6107a6565b60405161023091906125a8565b60405180910390f35b610253600480360381019061024e9190611c23565b610858565b604051610260919061286c565b60405180910390f35b610271610910565b005b61027b610998565b60405161028891906125a8565b60405180910390f35b6102996109c2565b6040516102a6919061262a565b60405180910390f35b6102c960048036038101906102c49190611d52565b610a54565b005b6102e560048036038101906102e09190611cd7565b610a6a565b005b61030160048036038101906102fc9190611e5d565b610acc565b60405161030e919061262a565b60405180910390f35b610331600480360381019061032c9190611e1c565b610b73565b005b61034d60048036038101906103489190611c4c565b610ba6565b60405161035a919061260f565b60405180910390f35b61037d60048036038101906103789190611c23565b610c3a565b005b60007f80ac58cd000000000000000000000000000000000000000000000000000000007bffffffffffffffffffffffffffffffffffffffffffffffffffffffff1916827bffffffffffffffffffffffffffffffffffffffffffffffffffffffff1916148061044a57507f5b5e139f000000000000000000000000000000000000000000000000000000007bffffffffffffffffffffffffffffffffffffffffffffffffffffffff1916827bffffffffffffffffffffffffffffffffffffffffffffffffffffffff1916145b8061045a575061045982610d32565b5b9050919050565b60606000805461047090612acc565b80601f016020809104026020016040519081016040528092919081815260200182805461049c90612acc565b80156104e95780601f106104be576101008083540402835291602001916104e9565b820191906000526020600020905b8154815290600101906020018083116104cc57829003601f168201915b5050505050905090565b60006104fe82610d9c565b61053d576040517f08c379a00000000000000000000000000000000000000000000000000000000081526004016105349061278c565b60405180910390fd5b6004600083815260200190815260200160002060009054906101000a900473ffffffffffffffffffffffffffffffffffffffff169050919050565b6000610583826107a6565b90508073ffffffffffffffffffffffffffffffffffffffff168373ffffffffffffffffffffffffffffffffffffffff1614156105f4576040517f08c379a00000000000000000000000000000000000000000000000000000000081526004016105eb9061282c565b60405180910390fd5b8073ffffffffffffffffffffffffffffffffffffffff16610613610e08565b73ffffffffffffffffffffffffffffffffffffffff16148061064257506106418161063c610e08565b610ba6565b5b610681576040517f08c379a00000000000000000000000000000000000000000000000000000000081526004016106789061270c565b60405180910390fd5b61068b8383610e10565b505050565b6106a161069b610e08565b82610ec9565b6106e0576040517f08c379a00000000000000000000000000000000000000000000000000000000081526004016106d79061284c565b60405180910390fd5b6106eb838383610fa7565b505050565b61070b83838360405180602001604052806000815250610a6a565b505050565b610718610e08565b73ffffffffffffffffffffffffffffffffffffffff16610736610998565b73ffffffffffffffffffffffffffffffffffffffff161461078c576040517f08c379a0000000000000000000000000000000000000000000000000000000008152600401610783906127cc565b60405180910390fd5b80600990805190602001906107a2929190611a47565b5050565b6000806002600084815260200190815260200160002060009054906101000a900473ffffffffffffffffffffffffffffffffffffffff169050600073ffffffffffffffffffffffffffffffffffffffff168173ffffffffffffffffffffffffffffffffffffffff16141561084f576040517f08c379a00000000000000000000000000000000000000000000000000000000081526004016108469061274c565b60405180910390fd5b80915050919050565b60008073ffffffffffffffffffffffffffffffffffffffff168273ffffffffffffffffffffffffffffffffffffffff1614156108c9576040517f08c379a00000000000000000000000000000000000000000000000000000000081526004016108c09061272c565b60405180910390fd5b600360008373ffffffffffffffffffffffffffffffffffffffff1673ffffffffffffffffffffffffffffffffffffffff168152602001908152602001600020549050919050565b610918610e08565b73ffffffffffffffffffffffffffffffffffffffff16610936610998565b73ffffffffffffffffffffffffffffffffffffffff161461098c576040517f08c379a0000000000000000000000000000000000000000000000000000000008152600401610983906127cc565b60405180910390fd5b6109966000611203565b565b6000600660009054906101000a900473ffffffffffffffffffffffffffffffffffffffff16905090565b6060600180546109d190612acc565b80601f01602080910402602001604051908101604052809291908181526020018280546109fd90612acc565b8015610a4a5780601f10610a1f57610100808354040283529160200191610a4a565b820191906000526020600020905b815481529060010190602001808311610a2d57829003601f168201915b5050505050905090565b610a66610a5f610e08565b83836112c9565b5050565b610a7b610a75610e08565b83610ec9565b610aba576040517f08c379a0000000000000000000000000000000000000000000000000000000008152600401610ab19061284c565b60405180910390fd5b610ac684848484611436565b50505050565b6060610ad782610d9c565b610b16576040517f08c379a0000000000000000000000000000000000000000000000000000000008152600401610b0d9061280c565b60405180910390fd5b6000610b20611492565b90506000815111610b405760405180602001604052806000815250610b6b565b80610b4a846114a9565b604051602001610b5b929190612584565b6040516020818303038152906040525b915050919050565b60076000815480929190610b8690612afe565b9190505550610b9733600754611656565b610ba360075482611824565b50565b6000600560008473ffffffffffffffffffffffffffffffffffffffff1673ffffffffffffffffffffffffffffffffffffffff16815260200190815260200160002060008373ffffffffffffffffffffffffffffffffffffffff1673ffffffffffffffffffffffffffffffffffffffff16815260200190815260200160002060009054906101000a900460ff16905092915050565b610c42610e08565b73ffffffffffffffffffffffffffffffffffffffff16610c60610998565b73ffffffffffffffffffffffffffffffffffffffff1614610cb6576040517f08c379a0000000000000000000000000000000000000000000000000000000008152600401610cad906127cc565b60405180910390fd5b600073ffffffffffffffffffffffffffffffffffffffff168173ffffffffffffffffffffffffffffffffffffffff161415610d26576040517f08c379a0000000000000000000000000000000000000000000000000000000008152600401610d1d9061266c565b60405180910390fd5b610d2f81611203565b50565b60007f01ffc9a7000000000000000000000000000000000000000000000000000000007bffffffffffffffffffffffffffffffffffffffffffffffffffffffff1916827bffffffffffffffffffffffffffffffffffffffffffffffffffffffff1916149050919050565b60008073ffffffffffffffffffffffffffffffffffffffff166002600084815260200190815260200160002060009054906101000a900473ffffffffffffffffffffffffffffffffffffffff1673ffffffffffffffffffffffffffffffffffffffff1614159050919050565b600033905090565b816004600083815260200190815260200160002060006101000a81548173ffffffffffffffffffffffffffffffffffffffff021916908373ffffffffffffffffffffffffffffffffffffffff160217905550808273ffffffffffffffffffffffffffffffffffffffff16610e83836107a6565b73ffffffffffffffffffffffffffffffffffffffff167f8c5be1e5ebec7d5bd14f71427d1e84f3dd0314c0f7b2291e5b200ac8c7c3b92560405160405180910390a45050565b6000610ed482610d9c565b610f13576040517f08c379a0000000000000000000000000000000000000000000000000000000008152600401610f0a906126ec565b60405180910390fd5b6000610f1e836107a6565b90508073ffffffffffffffffffffffffffffffffffffffff168473ffffffffffffffffffffffffffffffffffffffff161480610f8d57508373ffffffffffffffffffffffffffffffffffffffff16610f75846104f3565b73ffffffffffffffffffffffffffffffffffffffff16145b80610f9e5750610f9d8185610ba6565b5b91505092915050565b8273ffffffffffffffffffffffffffffffffffffffff16610fc7826107a6565b73ffffffffffffffffffffffffffffffffffffffff161461101d576040517f08c379a0000000000000000000000000000000000000000000000000000000008152600401611014906127ec565b60405180910390fd5b600073ffffffffffffffffffffffffffffffffffffffff168273ffffffffffffffffffffffffffffffffffffffff16141561108d576040517f08c379a0000000000000000000000000000000000000000000000000000000008152600401611084906126ac565b60405180910390fd5b611098838383611898565b6110a3600082610e10565b6001600360008573ffffffffffffffffffffffffffffffffffffffff1673ffffffffffffffffffffffffffffffffffffffff16815260200190815260200160002060008282546110f391906129e2565b925050819055506001600360008473ffffffffffffffffffffffffffffffffffffffff1673ffffffffffffffffffffffffffffffffffffffff168152602001908152602001600020600082825461114a919061295b565b92505081905550816002600083815260200190815260200160002060006101000a81548173ffffffffffffffffffffffffffffffffffffffff021916908373ffffffffffffffffffffffffffffffffffffffff160217905550808273ffffffffffffffffffffffffffffffffffffffff168473ffffffffffffffffffffffffffffffffffffffff167fddf252ad1be2c89b69c2b068fc378daa952ba7f163c4a11628f55a4df523b3ef60405160405180910390a4505050565b6000600660009054906101000a900473ffffffffffffffffffffffffffffffffffffffff16905081600660006101000a81548173ffffffffffffffffffffffffffffffffffffffff021916908373ffffffffffffffffffffffffffffffffffffffff1602179055508173ffffffffffffffffffffffffffffffffffffffff168173ffffffffffffffffffffffffffffffffffffffff167f8be0079c531659141344cd1fd0a4f28419497f9722a3daafe3b4186f6b6457e060405160405180910390a35050565b8173ffffffffffffffffffffffffffffffffffffffff168373ffffffffffffffffffffffffffffffffffffffff161415611338576040517f08c379a000000000000000000000000000000000000000000000000000000000815260040161132f906126cc565b60405180910390fd5b80600560008573ffffffffffffffffffffffffffffffffffffffff1673ffffffffffffffffffffffffffffffffffffffff16815260200190815260200160002060008473ffffffffffffffffffffffffffffffffffffffff1673ffffffffffffffffffffffffffffffffffffffff16815260200190815260200160002060006101000a81548160ff0219169083151502179055508173ffffffffffffffffffffffffffffffffffffffff168373ffffffffffffffffffffffffffffffffffffffff167f17307eab39ab6107e8899845ad3d59bd9653f200f220920489ca2b5937696c3183604051611429919061260f565b60405180910390a3505050565b611441848484610fa7565b61144d8484848461189d565b61148c576040517f08c379a00000000000000000000000000000000000000000000000000000000081526004016114839061264c565b60405180910390fd5b50505050565b606060405180602001604052806000815250905090565b606060008214156114f1576040518060400160405280600181526020017f30000000000000000000000000000000000000000000000000000000000000008152509050611651565b600082905060005b6000821461152357808061150c90612afe565b915050600a8261151c91906129b1565b91506114f9565b60008167ffffffffffffffff811115611565577f4e487b7100000000000000000000000000000000000000000000000000000000600052604160045260246000fd5b6040519080825280601f01601f1916602001820160405280156115975781602001600182028036833780820191505090505b5090505b6000851461164a576001826115b091906129e2565b9150600a856115bf9190612b47565b60306115cb919061295b565b60f81b818381518110611607577f4e487b7100000000000000000000000000000000000000000000000000000000600052603260045260246000fd5b60200101907effffffffffffffffffffffffffffffffffffffffffffffffffffffffffffff1916908160001a905350600a8561164391906129b1565b945061159b565b8093505050505b919050565b600073ffffffffffffffffffffffffffffffffffffffff168273ffffffffffffffffffffffffffffffffffffffff1614156116c6576040517f08c379a00000000000000000000000000000000000000000000000000000000081526004016116bd9061276c565b60405180910390fd5b6116cf81610d9c565b1561170f576040517f08c379a00000000000000000000000000000000000000000000000000000000081526004016117069061268c565b60405180910390fd5b61171b60008383611898565b6001600360008473ffffffffffffffffffffffffffffffffffffffff1673ffffffffffffffffffffffffffffffffffffffff168152602001908152602001600020600082825461176b919061295b565b92505081905550816002600083815260200190815260200160002060006101000a81548173ffffffffffffffffffffffffffffffffffffffff021916908373ffffffffffffffffffffffffffffffffffffffff160217905550808273ffffffffffffffffffffffffffffffffffffffff16600073ffffffffffffffffffffffffffffffffffffffff167fddf252ad1be2c89b69c2b068fc378daa952ba7f163c4a11628f55a4df523b3ef60405160405180910390a45050565b61182d82610d9c565b61186c576040517f08c379a0000000000000000000000000000000000000000000000000000000008152600401611863906127ac565b60405180910390fd5b80600860008481526020019081526020016000209080519060200190611893929190611a47565b505050565b505050565b60006118be8473ffffffffffffffffffffffffffffffffffffffff16611a34565b15611a27578373ffffffffffffffffffffffffffffffffffffffff1663150b7a026118e7610e08565b8786866040518563ffffffff1660e01b815260040161190994939291906125c3565b602060405180830381600087803b15801561192357600080fd5b505af192505050801561195457506040513d601f19601f820116820180604052508101906119519190611df3565b60015b6119d7573d8060008114611984576040519150601f19603f3d011682016040523d82523d6000602084013e611989565b606091505b506000815114156119cf576040517f08c379a00000000000000000000000000000000000000000000000000000000081526004016119c69061264c565b60405180910390fd5b805181602001fd5b63150b7a0260e01b7bffffffffffffffffffffffffffffffffffffffffffffffffffffffff1916817bffffffffffffffffffffffffffffffffffffffffffffffffffffffff191614915050611a2c565b600190505b949350505050565b600080823b905060008111915050919050565b828054611a5390612acc565b90600052602060002090601f016020900481019282611a755760008555611abc565b82601f10611a8e57805160ff1916838001178555611abc565b82800160010185558215611abc579182015b82811115611abb578251825591602001919060010190611aa0565b5b509050611ac99190611acd565b5090565b5b80821115611ae6576000816000905550600101611ace565b5090565b6000611afd611af8846128b8565b612887565b905082815260208101848484011115611b1557600080fd5b611b20848285612a8a565b509392505050565b6000611b3b611b36846128e8565b612887565b905082815260208101848484011115611b5357600080fd5b611b5e848285612a8a565b509392505050565b600081359050611b7581612c45565b92915050565b600081359050611b8a81612c5c565b92915050565b600081359050611b9f81612c73565b92915050565b600081519050611bb481612c73565b92915050565b600082601f830112611bcb57600080fd5b8135611bdb848260208601611aea565b91505092915050565b600082601f830112611bf557600080fd5b8135611c05848260208601611b28565b91505092915050565b600081359050611c1d81612c8a565b92915050565b600060208284031215611c3557600080fd5b6000611c4384828501611b66565b91505092915050565b60008060408385031215611c5f57600080fd5b6000611c6d85828601611b66565b9250506020611c7e85828601611b66565b9150509250929050565b600080600060608486031215611c9d57600080fd5b6000611cab86828701611b66565b9350506020611cbc86828701611b66565b9250506040611ccd86828701611c0e565b9150509250925092565b60008060008060808587031215611ced57600080fd5b6000611cfb87828801611b66565b9450506020611d0c87828801611b66565b9350506040611d1d87828801611c0e565b925050606085013567ffffffffffffffff811115611d3a57600080fd5b611d4687828801611bba565b91505092959194509250565b60008060408385031215611d6557600080fd5b6000611d7385828601611b66565b9250506020611d8485828601611b7b565b9150509250929050565b60008060408385031215611da157600080fd5b6000611daf85828601611b66565b9250506020611dc085828601611c0e565b9150509250929050565b600060208284031215611ddc57600080fd5b6000611dea84828501611b90565b91505092915050565b600060208284031215611e0557600080fd5b6000611e1384828501611ba5565b91505092915050565b600060208284031215611e2e57600080fd5b600082013567ffffffffffffffff811115611e4857600080fd5b611e5484828501611be4565b91505092915050565b600060208284031215611e6f57600080fd5b6000611e7d84828501611c0e565b91505092915050565b611e8f81612a16565b82525050565b611e9e81612a28565b82525050565b6000611eaf82612918565b611eb9818561292e565b9350611ec9818560208601612a99565b611ed281612c34565b840191505092915050565b6000611ee882612923565b611ef2818561293f565b9350611f02818560208601612a99565b611f0b81612c34565b840191505092915050565b6000611f2182612923565b611f2b8185612950565b9350611f3b818560208601612a99565b80840191505092915050565b6000611f5460328361293f565b91507f4552433732313a207472616e7366657220746f206e6f6e20455243373231526560008301527f63656976657220696d706c656d656e74657200000000000000000000000000006020830152604082019050919050565b6000611fba60268361293f565b91507f4f776e61626c653a206e6577206f776e657220697320746865207a65726f206160008301527f64647265737300000000000000000000000000000000000000000000000000006020830152604082019050919050565b6000612020601c8361293f565b91507f4552433732313a20746f6b656e20616c7265616479206d696e746564000000006000830152602082019050919050565b600061206060248361293f565b91507f4552433732313a207472616e7366657220746f20746865207a65726f2061646460008301527f72657373000000000000000000000000000000000000000000000000000000006020830152604082019050919050565b60006120c660198361293f565b91507f4552433732313a20617070726f766520746f2063616c6c6572000000000000006000830152602082019050919050565b6000612106602c8361293f565b91507f4552433732313a206f70657261746f7220717565727920666f72206e6f6e657860008301527f697374656e7420746f6b656e00000000000000000000000000000000000000006020830152604082019050919050565b600061216c60388361293f565b91507f4552433732313a20617070726f76652063616c6c6572206973206e6f74206f7760008301527f6e6572206e6f7220617070726f76656420666f7220616c6c00000000000000006020830152604082019050919050565b60006121d2602a8361293f565b91507f4552433732313a2062616c616e636520717565727920666f7220746865207a6560008301527f726f2061646472657373000000000000000000000000000000000000000000006020830152604082019050919050565b600061223860298361293f565b91507f4552433732313a206f776e657220717565727920666f72206e6f6e657869737460008301527f656e7420746f6b656e00000000000000000000000000000000000000000000006020830152604082019050919050565b600061229e60208361293f565b91507f4552433732313a206d696e7420746f20746865207a65726f20616464726573736000830152602082019050919050565b60006122de602c8361293f565b91507f4552433732313a20617070726f76656420717565727920666f72206e6f6e657860008301527f697374656e7420746f6b656e00000000000000000000000000000000000000006020830152604082019050919050565b6000612344602c8361293f565b91507f4552433732314d657461646174613a2055524920736574206f66206e6f6e657860008301527f697374656e7420746f6b656e00000000000000000000000000000000000000006020830152604082019050919050565b60006123aa60208361293f565b91507f4f776e61626c653a2063616c6c6572206973206e6f7420746865206f776e65726000830152602082019050919050565b60006123ea60298361293f565b91507f4552433732313a207472616e73666572206f6620746f6b656e2074686174206960008301527f73206e6f74206f776e00000000000000000000000000000000000000000000006020830152604082019050919050565b6000612450602f8361293f565b91507f4552433732314d657461646174613a2055524920717565727920666f72206e6f60008301527f6e6578697374656e7420746f6b656e00000000000000000000000000000000006020830152604082019050919050565b60006124b660218361293f565b91507f4552433732313a20617070726f76616c20746f2063757272656e74206f776e6560008301527f72000000000000000000000000000000000000000000000000000000000000006020830152604082019050919050565b600061251c60318361293f565b91507f4552433732313a207472616e736665722063616c6c6572206973206e6f74206f60008301527f776e6572206e6f7220617070726f7665640000000000000000000000000000006020830152604082019050919050565b61257e81612a80565b82525050565b60006125908285611f16565b915061259c8284611f16565b91508190509392505050565b60006020820190506125bd6000830184611e86565b92915050565b60006080820190506125d86000830187611e86565b6125e56020830186611e86565b6125f26040830185612575565b81810360608301526126048184611ea4565b905095945050505050565b60006020820190506126246000830184611e95565b92915050565b600060208201905081810360008301526126448184611edd565b905092915050565b6000602082019050818103600083015261266581611f47565b9050919050565b6000602082019050818103600083015261268581611fad565b9050919050565b600060208201905081810360008301526126a581612013565b9050919050565b600060208201905081810360008301526126c581612053565b9050919050565b600060208201905081810360008301526126e5816120b9565b9050919050565b60006020820190508181036000830152612705816120f9565b9050919050565b600060208201905081810360008301526127258161215f565b9050919050565b60006020820190508181036000830152612745816121c5565b9050919050565b600060208201905081810360008301526127658161222b565b9050919050565b6000602082019050818103600083015261278581612291565b9050919050565b600060208201905081810360008301526127a5816122d1565b9050919050565b600060208201905081810360008301526127c581612337565b9050919050565b600060208201905081810360008301526127e58161239d565b9050919050565b60006020820190508181036000830152612805816123dd565b9050919050565b6000602082019050818103600083015261282581612443565b9050919050565b60006020820190508181036000830152612845816124a9565b9050919050565b600060208201905081810360008301526128658161250f565b9050919050565b60006020820190506128816000830184612575565b92915050565b6000604051905081810181811067ffffffffffffffff821117156128ae576128ad612c05565b5b8060405250919050565b600067ffffffffffffffff8211156128d3576128d2612c05565b5b601f19601f8301169050602081019050919050565b600067ffffffffffffffff82111561290357612902612c05565b5b601f19601f8301169050602081019050919050565b600081519050919050565b600081519050919050565b600082825260208201905092915050565b600082825260208201905092915050565b600081905092915050565b600061296682612a80565b915061297183612a80565b9250827fffffffffffffffffffffffffffffffffffffffffffffffffffffffffffffffff038211156129a6576129a5612b78565b5b828201905092915050565b60006129bc82612a80565b91506129c783612a80565b9250826129d7576129d6612ba7565b5b828204905092915050565b60006129ed82612a80565b91506129f883612a80565b925082821015612a0b57612a0a612b78565b5b828203905092915050565b6000612a2182612a60565b9050919050565b60008115159050919050565b60007fffffffff0000000000000000000000000000000000000000000000000000000082169050919050565b600073ffffffffffffffffffffffffffffffffffffffff82169050919050565b6000819050919050565b82818337600083830152505050565b60005b83811015612ab7578082015181840152602081019050612a9c565b83811115612ac6576000848401525b50505050565b60006002820490506001821680612ae457607f821691505b60208210811415612af857612af7612bd6565b5b50919050565b6000612b0982612a80565b91507fffffffffffffffffffffffffffffffffffffffffffffffffffffffffffffffff821415612b3c57612b3b612b78565b5b600182019050919050565b6000612b5282612a80565b9150612b5d83612a80565b925082612b6d57612b6c612ba7565b5b828206905092915050565b7f4e487b7100000000000000000000000000000000000000000000000000000000600052601160045260246000fd5b7f4e487b7100000000000000000000000000000000000000000000000000000000600052601260045260246000fd5b7f4e487b7100000000000000000000000000000000000000000000000000000000600052602260045260246000fd5b7f4e487b7100000000000000000000000000000000000000000000000000000000600052604160045260246000fd5b6000601f19601f8301169050919050565b612c4e81612a16565b8114612c5957600080fd5b50565b612c6581612a28565b8114612c7057600080fd5b50565b612c7c81612a34565b8114612c8757600080fd5b50565b612c9381612a80565b8114612c9e57600080fd5b5056fea2646970667358221220a4ac23d3b5cb4d068288f3a44899eeac23f2c1a354bc9b70348a30075ae619a464736f6c63430008000033",
  "immutableReferences": {},
  "source": "// SPDX-License-Identifier: MIT\r\npragma solidity ^0.8.0;\r\n\r\n\r\nimport \"@openzeppelin/contracts/token/ERC721/ERC721.sol\";\r\nimport \"@openzeppelin/contracts/utils/Counters.sol\";\r\nimport \"@openzeppelin/contracts/access/Ownable.sol\";\r\n\r\ncontract Test is ERC721, Ownable {\r\n    \r\n    using Strings for uint256;\r\n    uint256 private _tokenIds;\r\n    \r\n    // Optional mapping for token URIs\r\n    mapping (uint256 => string) private _tokenURIs;\r\n\r\n    // Base URI\r\n    string private _baseURIextended;\r\n\r\n\r\n    constructor(string memory _name, string memory _symbol)\r\n        ERC721(_name, _symbol)\r\n    {}\r\n    \r\n    function setBaseURI(string memory baseURI_) external onlyOwner() {\r\n        _baseURIextended = baseURI_;\r\n    }\r\n    \r\n    function _setTokenURI(uint256 tokenId, string memory _tokenURI) internal virtual {\r\n        require(_exists(tokenId), \"ERC721Metadata: URI set of nonexistent token\");\r\n        _tokenURIs[tokenId] = _tokenURI;\r\n    }\r\n\r\n    function mint(\r\n        string memory tokenURI_\r\n    ) external {\r\n        _tokenIds ++;\r\n        _mint(msg.sender, _tokenIds);\r\n        _setTokenURI(_tokenIds, tokenURI_);\r\n    }\r\n}",
  "sourcePath": "E:\\work\\test\\default\\default\\contracts\\Test.sol",
  "compiler": {
    "name": "solc",
    "version": "0.8.0+commit.c7dfd78e.Emscripten.clang"
  },
  "schemaVersion": "3.4.4",
  "updatedAt": "2022-01-28T08:22:27.742Z",
  "devdoc": {
    "kind": "dev",
    "methods": {
      "approve(address,uint256)": {
        "details": "See {IERC721-approve}."
      },
      "balanceOf(address)": {
        "details": "See {IERC721-balanceOf}."
      },
      "getApproved(uint256)": {
        "details": "See {IERC721-getApproved}."
      },
      "isApprovedForAll(address,address)": {
        "details": "See {IERC721-isApprovedForAll}."
      },
      "name()": {
        "details": "See {IERC721Metadata-name}."
      },
      "owner()": {
        "details": "Returns the address of the current owner."
      },
      "ownerOf(uint256)": {
        "details": "See {IERC721-ownerOf}."
      },
      "renounceOwnership()": {
        "details": "Leaves the contract without owner. It will not be possible to call `onlyOwner` functions anymore. Can only be called by the current owner. NOTE: Renouncing ownership will leave the contract without an owner, thereby removing any functionality that is only available to the owner."
      },
      "safeTransferFrom(address,address,uint256)": {
        "details": "See {IERC721-safeTransferFrom}."
      },
      "safeTransferFrom(address,address,uint256,bytes)": {
        "details": "See {IERC721-safeTransferFrom}."
      },
      "setApprovalForAll(address,bool)": {
        "details": "See {IERC721-setApprovalForAll}."
      },
      "supportsInterface(bytes4)": {
        "details": "See {IERC165-supportsInterface}."
      },
      "symbol()": {
        "details": "See {IERC721Metadata-symbol}."
      },
      "tokenURI(uint256)": {
        "details": "See {IERC721Metadata-tokenURI}."
      },
      "transferFrom(address,address,uint256)": {
        "details": "See {IERC721-transferFrom}."
      },
      "transferOwnership(address)": {
        "details": "Transfers ownership of the contract to a new account (`newOwner`). Can only be called by the current owner."
      }
    },
    "version": 1
  },
  "userdoc": {
    "kind": "user",
    "methods": {},
    "version": 1
  }
}